{
  "contractName": "GameSpirit",
  "abi": [
    {
      "inputs": [
        {
          "internalType": "address",
          "name": "_user",
          "type": "address"
        }
      ],
      "name": "userSpiritNumber",
      "outputs": [
        {
          "internalType": "uint256",
          "name": "",
          "type": "uint256"
        }
      ],
      "stateMutability": "view",
      "type": "function"
    },
    {
      "inputs": [
        {
          "internalType": "uint256",
          "name": "index",
          "type": "uint256"
        }
      ],
      "name": "userSpiritHash",
      "outputs": [
        {
          "internalType": "string",
          "name": "",
          "type": "string"
        }
      ],
      "stateMutability": "view",
      "type": "function"
    },
    {
      "inputs": [
        {
          "internalType": "uint256",
          "name": "index",
          "type": "uint256"
        }
      ],
      "name": "userSpiritTime",
      "outputs": [
        {
          "internalType": "uint256",
          "name": "",
          "type": "uint256"
        }
      ],
      "stateMutability": "view",
      "type": "function"
    },
    {
      "inputs": [
        {
          "internalType": "address",
          "name": "_user",
          "type": "address"
        },
        {
          "internalType": "uint256",
          "name": "_timestamp",
          "type": "uint256"
        }
      ],
      "name": "userMint",
      "outputs": [],
      "stateMutability": "nonpayable",
      "type": "function"
    },
    {
      "inputs": [
        {
          "internalType": "address",
          "name": "_user",
          "type": "address"
        },
        {
          "internalType": "uint256",
          "name": "_index",
          "type": "uint256"
        }
      ],
      "name": "userFeed",
      "outputs": [],
      "stateMutability": "nonpayable",
      "type": "function"
    },
    {
      "inputs": [
        {
          "internalType": "address",
          "name": "a",
          "type": "address"
        }
      ],
      "name": "_test",
      "outputs": [
        {
          "internalType": "uint256",
          "name": "",
          "type": "uint256"
        }
      ],
      "stateMutability": "view",
      "type": "function"
    }
  ],
  "bytecode": "0x60806040526040518061012001604052806040518060600160405280602e815260200162001094602e913981526020016040518060600160405280602e81526020016200117a602e913981526020016040518060600160405280602e81526020016200111e602e913981526020016040518060600160405280602e815260200162001066602e913981526020016040518060600160405280602e8152602001620011a8602e913981526020016040518060600160405280602e81526020016200114c602e913981526020016040518060600160405280602e8152602001620010f0602e913981526020016040518060600160405280602e815260200162001038602e913981526020016040518060600160405280602e8152602001620010c2602e913981525060009060096200013792919062000156565b50600960015560006002553480156200014f57600080fd5b506200033f565b828054828255906000526020600020908101928215620001aa579160200282015b82811115620001a957825182908051906020019062000198929190620001bd565b509160200191906001019062000177565b5b509050620001b991906200024e565b5090565b828054620001cb906200030a565b90600052602060002090601f016020900481019282620001ef57600085556200023b565b82601f106200020a57805160ff19168380011785556200023b565b828001600101855582156200023b579182015b828111156200023a5782518255916020019190600101906200021d565b5b5090506200024a919062000276565b5090565b5b8082111562000272576000818162000268919062000295565b506001016200024f565b5090565b5b808211156200029157600081600090555060010162000277565b5090565b508054620002a3906200030a565b6000825580601f10620002b75750620002d8565b601f016020900490600052602060002090810190620002d7919062000276565b5b50565b7f4e487b7100000000000000000000000000000000000000000000000000000000600052602260045260246000fd5b600060028204905060018216806200032357607f821691505b602082108103620003395762000338620002db565b5b50919050565b610ce9806200034f6000396000f3fe608060405234801561001057600080fd5b50600436106100625760003560e01c806337e91abe1461006757806339516894146100975780635e8bc299146100b3578063b2fe23fd146100e3578063c9a6b17514610113578063dd22680214610143575b600080fd5b610081600480360381019061007c9190610794565b61015f565b60405161008e91906107da565b60405180910390f35b6100b160048036038101906100ac9190610821565b6101ab565b005b6100cd60048036038101906100c89190610861565b610276565b6040516100da91906107da565b60405180910390f35b6100fd60048036038101906100f89190610861565b61032c565b60405161010a9190610927565b60405180910390f35b61012d60048036038101906101289190610794565b61046a565b60405161013a91906107da565b60405180910390f35b61015d60048036038101906101589190610821565b6104d7565b005b6000600360008373ffffffffffffffffffffffffffffffffffffffff1673ffffffffffffffffffffffffffffffffffffffff168152602001908152602001600020805490509050919050565b6101b48261015f565b81106101f5576040517f08c379a00000000000000000000000000000000000000000000000000000000081526004016101ec90610995565b60405180910390fd5b6301499700600360008473ffffffffffffffffffffffffffffffffffffffff1673ffffffffffffffffffffffffffffffffffffffff168152602001908152602001600020828154811061024b5761024a6109b5565b5b9060005260206000209060020201600101600082825461026b9190610a13565b925050819055505050565b60006102813361015f565b82106102c2576040517f08c379a00000000000000000000000000000000000000000000000000000000081526004016102b990610ab9565b60405180910390fd5b600360003373ffffffffffffffffffffffffffffffffffffffff1673ffffffffffffffffffffffffffffffffffffffff1681526020019081526020016000208281548110610313576103126109b5565b5b9060005260206000209060020201600101549050919050565b60606103373361015f565b8210610378576040517f08c379a000000000000000000000000000000000000000000000000000000000815260040161036f90610b4b565b60405180910390fd5b600360003373ffffffffffffffffffffffffffffffffffffffff1673ffffffffffffffffffffffffffffffffffffffff16815260200190815260200160002082815481106103c9576103c86109b5565b5b906000526020600020906002020160000180546103e590610b9a565b80601f016020809104026020016040519081016040528092919081815260200182805461041190610b9a565b801561045e5780601f106104335761010080835404028352916020019161045e565b820191906000526020600020905b81548152906001019060200180831161044157829003601f168201915b50505050509050919050565b6000600360008373ffffffffffffffffffffffffffffffffffffffff1673ffffffffffffffffffffffffffffffffffffffff1681526020019081526020016000206000815481106104be576104bd6109b5565b5b9060005260206000209060020201600101549050919050565b6002546001541161051d576040517f08c379a000000000000000000000000000000000000000000000000000000000815260040161051490610c3d565b60405180910390fd5b60008060025481548110610534576105336109b5565b5b90600052602060002001805461054990610b9a565b80601f016020809104026020016040519081016040528092919081815260200182805461057590610b9a565b80156105c25780601f10610597576101008083540402835291602001916105c2565b820191906000526020600020905b8154815290600101906020018083116105a557829003601f168201915b505050505090506001600260008282546105dc9190610c5d565b92505081905550600360008473ffffffffffffffffffffffffffffffffffffffff1673ffffffffffffffffffffffffffffffffffffffff1681526020019081526020016000206040518060400160405280838152602001848152509080600181540180825580915050600190039060005260206000209060020201600090919091909150600082015181600001908051906020019061067c92919061068e565b50602082015181600101555050505050565b82805461069a90610b9a565b90600052602060002090601f0160209004810192826106bc5760008555610703565b82601f106106d557805160ff1916838001178555610703565b82800160010185558215610703579182015b828111156107025782518255916020019190600101906106e7565b5b5090506107109190610714565b5090565b5b8082111561072d576000816000905550600101610715565b5090565b600080fd5b600073ffffffffffffffffffffffffffffffffffffffff82169050919050565b600061076182610736565b9050919050565b61077181610756565b811461077c57600080fd5b50565b60008135905061078e81610768565b92915050565b6000602082840312156107aa576107a9610731565b5b60006107b88482850161077f565b91505092915050565b6000819050919050565b6107d4816107c1565b82525050565b60006020820190506107ef60008301846107cb565b92915050565b6107fe816107c1565b811461080957600080fd5b50565b60008135905061081b816107f5565b92915050565b6000806040838503121561083857610837610731565b5b60006108468582860161077f565b92505060206108578582860161080c565b9150509250929050565b60006020828403121561087757610876610731565b5b60006108858482850161080c565b91505092915050565b600081519050919050565b600082825260208201905092915050565b60005b838110156108c85780820151818401526020810190506108ad565b838111156108d7576000848401525b50505050565b6000601f19601f8301169050919050565b60006108f98261088e565b6109038185610899565b93506109138185602086016108aa565b61091c816108dd565b840191505092915050565b6000602082019050818103600083015261094181846108ee565b905092915050565b7f2075736572466565643a20496e646578206f7574206f662072616e6765210000600082015250565b600061097f601e83610899565b915061098a82610949565b602082019050919050565b600060208201905081810360008301526109ae81610972565b9050919050565b7f4e487b7100000000000000000000000000000000000000000000000000000000600052603260045260246000fd5b7f4e487b7100000000000000000000000000000000000000000000000000000000600052601160045260246000fd5b6000610a1e826107c1565b9150610a29836107c1565b925082821015610a3c57610a3b6109e4565b5b828203905092915050565b7f207573657253706972697454696d653a20496e646578206f7574206f6620726160008201527f6e67652100000000000000000000000000000000000000000000000000000000602082015250565b6000610aa3602483610899565b9150610aae82610a47565b604082019050919050565b60006020820190508181036000830152610ad281610a96565b9050919050565b7f20736572537069726974486173683a20496e646578206f7574206f662072616e60008201527f6765210000000000000000000000000000000000000000000000000000000000602082015250565b6000610b35602383610899565b9150610b4082610ad9565b604082019050919050565b60006020820190508181036000830152610b6481610b28565b9050919050565b7f4e487b7100000000000000000000000000000000000000000000000000000000600052602260045260246000fd5b60006002820490506001821680610bb257607f821691505b602082108103610bc557610bc4610b6b565b5b50919050565b7f20757365724d696e743a204e6f206d6f7265204e4654732063616e206265206d60008201527f696e7465647e0000000000000000000000000000000000000000000000000000602082015250565b6000610c27602683610899565b9150610c3282610bcb565b604082019050919050565b60006020820190508181036000830152610c5681610c1a565b9050919050565b6000610c68826107c1565b9150610c73836107c1565b9250827fffffffffffffffffffffffffffffffffffffffffffffffffffffffffffffffff03821115610ca857610ca76109e4565b5b82820190509291505056fea26469706673582212202458e68752cd3b0341700c1b8f70ea14a22c4c47ba07ebe79dd1f6574691f85e64736f6c634300080e0033516d5a667651346671614e75336f61626e5667384a596a685a51634356454762444c757553705a546e4574544b56516d546368383339366d576f636a6b7a6642446a35624e354a5159434e5479584e4742767743326a58326b764c54516d5a4c5451743375667365644641543955466f6b5057757048717358546b6a464833323357384a746859777161516d657857527a6563707641555339457471653675776a466a454475327a316b3562526650514b735a734667624d516d656f486f7a476a6a42686456455866784269617750594d35676b75426e3161624b5a586d4e4d647a38376e31516d4e7962594a6532395666324477646232696d6a6d563968547454346e676a6455333758535261365231466939516d5841726559724c41325165776645624467717556467033336461353861654b5872714769315a4a38797a3663516d5031466f487163756643417a75514c6f726848344d7065554b34736436546968324434656463536e33363572516d524238745351785466315236706a74555341397270624a74703774314e6274726f4b6337546e5272474c3477",
  "immutableReferences": {},
  "source": "// SPDX-License-Identifier: MIT\r\npragma solidity >=0.4.22 <0.9.0;\r\n\r\n\r\ncontract GameSpirit {\r\n    struct NFTInfo {\r\n        string hash;\r\n        uint timestamp;\r\n    }\r\n\r\n    string[] private myTmpList = [\r\n\"QmZLTQt3ufsedFAT9UFokPWupHqsXTkjFH323W8JthYwqa\",\r\n\"QmP1FoHqcufCAzuQLorhH4MpeUK4sd6Tih2D4edcSn365r\",\r\n\"QmNybYJe29Vf2Dwdb2imjmV9hTtT4ngjdU37XSRa6R1Fi9\",\r\n\"QmTch8396mWocjkzfBDj5bN5JQYCNTyXNGBvwC2jX2kvLT\",\r\n\"QmRB8tSQxTf1R6pjtUSA9rpbJtp7t1NbtroKc7TnRrGL4w\",\r\n\"QmXAreYrLA2QewfEbDgquVFp33da58aeKXrqGi1ZJ8yz6c\",\r\n\"QmeoHozGjjBhdVEXfxBiawPYM5gkuBn1abKZXmNMdz87n1\",\r\n\"QmZfvQ4fqaNu3oabnVg8JYjhZQcCVEGbDLuuSpZTnEtTKV\",\r\n\"QmexWRzecpvAUS9Etqe6uwjFjEDu2z1k5bRfPQKsZsFgbM\"];\r\n\r\n    uint totalSupply = 9;\r\n    uint currentOccupancy = 0;\r\n\r\n    mapping(address=>NFTInfo[]) spiritTrace;\r\n\r\n    function userSpiritNumber(address _user) public view returns (uint){\r\n        return spiritTrace[_user].length;\r\n    }\r\n\r\n    function userSpiritHash(uint index) public view returns (string memory){\r\n        require((index < userSpiritNumber(msg.sender)),\" serSpiritHash: Index out of range!\");\r\n        return spiritTrace[msg.sender][index].hash;\r\n    }\r\n\r\n    function userSpiritTime(uint index) public view returns (uint){\r\n        require((index < userSpiritNumber(msg.sender)),\" userSpiritTime: Index out of range!\");\r\n        return spiritTrace[msg.sender][index].timestamp;\r\n    }\r\n\r\n    function userMint(address _user, uint256 _timestamp) public{\r\n        require((totalSupply > currentOccupancy), \" userMint: No more NFTs can be minted~\");\r\n        string memory _hash = myTmpList[currentOccupancy];\r\n        currentOccupancy += 1;\r\n        spiritTrace[_user].push(NFTInfo({hash:_hash, timestamp:_timestamp}));\r\n    }\r\n\r\n    function userFeed (address _user, uint _index) public {\r\n        require((_index < userSpiritNumber(_user)),\" userFeed: Index out of range!\");\r\n        spiritTrace[_user][_index].timestamp -= 6*60*60*1000;\r\n    }\r\n\r\n    function _test(address a) public view returns (uint256){\r\n        return spiritTrace[a][0].timestamp;\r\n    }\r\n}\r\n\r\n",
  "sourcePath": "C:\\Users\\\\Desktop\\FTE_PJ\\dev\\MerryFairy\\truffle\\contracts\\_GameSpirit.sol",
  "compiler": {
    "name": "solc",
    "version": "0.8.14+commit.80d49f37.Emscripten.clang"
  },
  "schemaVersion": "3.4.11",
  "updatedAt": "2022-12-10T08:15:28.642Z",
  "devdoc": {
    "kind": "dev",
    "methods": {},
    "version": 1
  },
  "userdoc": {
    "kind": "user",
    "methods": {},
    "version": 1
  }
}