{
  "contractName": "GameProfile",
  "abi": [
    {
      "inputs": [
        {
          "internalType": "string",
          "name": "_name",
          "type": "string"
        }
      ],
      "name": "setUpProfile",
      "outputs": [],
      "stateMutability": "nonpayable",
      "type": "function"
    },
    {
      "inputs": [],
      "name": "readExist",
      "outputs": [
        {
          "internalType": "bool",
          "name": "",
          "type": "bool"
        }
      ],
      "stateMutability": "view",
      "type": "function",
      "constant": true
    },
    {
      "inputs": [],
      "name": "readName",
      "outputs": [
        {
          "internalType": "string",
          "name": "",
          "type": "string"
        }
      ],
      "stateMutability": "view",
      "type": "function",
      "constant": true
    },
    {
      "inputs": [],
      "name": "readTime",
      "outputs": [
        {
          "internalType": "uint256",
          "name": "",
          "type": "uint256"
        }
      ],
      "stateMutability": "view",
      "type": "function",
      "constant": true
    },
    {
      "inputs": [],
      "name": "readPoint",
      "outputs": [
        {
          "internalType": "uint256",
          "name": "",
          "type": "uint256"
        }
      ],
      "stateMutability": "view",
      "type": "function",
      "constant": true
    },
    {
      "inputs": [],
      "name": "readItem",
      "outputs": [
        {
          "internalType": "uint256",
          "name": "",
          "type": "uint256"
        }
      ],
      "stateMutability": "view",
      "type": "function",
      "constant": true
    },
    {
      "inputs": [
        {
          "internalType": "string",
          "name": "_name",
          "type": "string"
        }
      ],
      "name": "changeName",
      "outputs": [],
      "stateMutability": "nonpayable",
      "type": "function"
    },
    {
      "inputs": [
        {
          "internalType": "uint256",
          "name": "_point",
          "type": "uint256"
        }
      ],
      "name": "addBeans",
      "outputs": [],
      "stateMutability": "nonpayable",
      "type": "function"
    },
    {
      "inputs": [
        {
          "internalType": "uint256",
          "name": "_point",
          "type": "uint256"
        }
      ],
      "name": "spendBeans",
      "outputs": [],
      "stateMutability": "nonpayable",
      "type": "function"
    },
    {
      "inputs": [
        {
          "internalType": "uint256",
          "name": "_item",
          "type": "uint256"
        }
      ],
      "name": "addItem",
      "outputs": [],
      "stateMutability": "nonpayable",
      "type": "function"
    },
    {
      "inputs": [],
      "name": "determinMintFee",
      "outputs": [
        {
          "internalType": "uint256",
          "name": "",
          "type": "uint256"
        }
      ],
      "stateMutability": "view",
      "type": "function",
      "constant": true
    },
    {
      "inputs": [
        {
          "internalType": "uint256",
          "name": "_index",
          "type": "uint256"
        }
      ],
      "name": "feed",
      "outputs": [],
      "stateMutability": "nonpayable",
      "type": "function"
    },
    {
      "inputs": [
        {
          "internalType": "uint256",
          "name": "_hours",
          "type": "uint256"
        }
      ],
      "name": "mint",
      "outputs": [],
      "stateMutability": "nonpayable",
      "type": "function"
    },
    {
      "inputs": [
        {
          "internalType": "uint256",
          "name": "itemNumber",
          "type": "uint256"
        }
      ],
      "name": "buyPoint",
      "outputs": [],
      "stateMutability": "nonpayable",
      "type": "function"
    },
    {
      "inputs": [
        {
          "internalType": "address",
          "name": "a",
          "type": "address"
        }
      ],
      "name": "test",
      "outputs": [
        {
          "internalType": "uint256",
          "name": "",
          "type": "uint256"
        }
      ],
      "stateMutability": "view",
      "type": "function",
      "constant": true
    }
  ],
  "bytecode": "0x6080604052734b6853786e0bfccdf12b7da8d9112dba81587c916000806101000a81548173ffffffffffffffffffffffffffffffffffffffff021916908373ffffffffffffffffffffffffffffffffffffffff16021790555034801561006457600080fd5b50611ce7806100746000396000f3fe608060405234801561001057600080fd5b50600436106100f55760003560e01c80637f983bb211610097578063be63404511610066578063be6340451461024c578063d5c38f8e14610268578063d9d7506514610286578063f59dfdfb146102a2576100f5565b80637f983bb2146101c8578063a0712d68146101e4578063bb29998e14610200578063bb2d17a514610230576100f5565b806352435489116100d357806352435489146101545780635353a2d814610172578063601aef891461018e5780636d57b37c146101ac576100f5565b806324bf47d5146100fa5780632a60d9f71461011857806339793ea914610136575b600080fd5b6101026102be565b60405161010f9190611581565b60405180910390f35b6101206103fb565b60405161012d91906115b7565b60405180910390f35b61013e610452565b60405161014b919061166b565b60405180910390f35b61015c6105b3565b6040516101699190611581565b60405180910390f35b61018c600480360381019061018791906116fc565b61068c565b005b610196610771565b6040516101a39190611581565b60405180910390f35b6101c660048036038101906101c19190611775565b61084a565b005b6101e260048036038101906101dd9190611775565b61098b565b005b6101fe60048036038101906101f99190611775565b610afa565b005b61021a60048036038101906102159190611800565b610d49565b6040516102279190611581565b60405180910390f35b61024a60048036038101906102459190611775565b610df1565b005b61026660048036038101906102619190611775565b610edc565b005b610270610fc7565b60405161027d9190611581565b60405180910390f35b6102a0600480360381019061029b91906116fc565b6110a0565b005b6102bc60048036038101906102b79190611775565b611242565b005b6000600160003373ffffffffffffffffffffffffffffffffffffffff1673ffffffffffffffffffffffffffffffffffffffff16815260200190815260200160002060040160009054906101000a900460ff1661034f576040517f08c379a000000000000000000000000000000000000000000000000000000000815260040161034690611879565b60405180910390fd5b6000600160003373ffffffffffffffffffffffffffffffffffffffff1673ffffffffffffffffffffffffffffffffffffffff168152602001908152602001600020600101549050600a8110156103a95760289150506103f8565b60328110156103bc5760329150506103f8565b60648110156103cf57603c9150506103f8565b600a6064826103de91906118c8565b6103e8919061192b565b603c6103f4919061195c565b9150505b90565b6000600160003373ffffffffffffffffffffffffffffffffffffffff1673ffffffffffffffffffffffffffffffffffffffff16815260200190815260200160002060040160009054906101000a900460ff16905090565b6060600160003373ffffffffffffffffffffffffffffffffffffffff1673ffffffffffffffffffffffffffffffffffffffff16815260200190815260200160002060040160009054906101000a900460ff166104e3576040517f08c379a00000000000000000000000000000000000000000000000000000000081526004016104da90611879565b60405180910390fd5b600160003373ffffffffffffffffffffffffffffffffffffffff1673ffffffffffffffffffffffffffffffffffffffff1681526020019081526020016000206000018054610530906119e1565b80601f016020809104026020016040519081016040528092919081815260200182805461055c906119e1565b80156105a95780601f1061057e576101008083540402835291602001916105a9565b820191906000526020600020905b81548152906001019060200180831161058c57829003601f168201915b5050505050905090565b6000600160003373ffffffffffffffffffffffffffffffffffffffff1673ffffffffffffffffffffffffffffffffffffffff16815260200190815260200160002060040160009054906101000a900460ff16610644576040517f08c379a000000000000000000000000000000000000000000000000000000000815260040161063b90611879565b60405180910390fd5b600160003373ffffffffffffffffffffffffffffffffffffffff1673ffffffffffffffffffffffffffffffffffffffff16815260200190815260200160002060030154905090565b600160003373ffffffffffffffffffffffffffffffffffffffff1673ffffffffffffffffffffffffffffffffffffffff16815260200190815260200160002060040160009054906101000a900460ff1661071b576040517f08c379a000000000000000000000000000000000000000000000000000000000815260040161071290611879565b60405180910390fd5b8181600160003373ffffffffffffffffffffffffffffffffffffffff1673ffffffffffffffffffffffffffffffffffffffff168152602001908152602001600020600001919061076c92919061143f565b505050565b6000600160003373ffffffffffffffffffffffffffffffffffffffff1673ffffffffffffffffffffffffffffffffffffffff16815260200190815260200160002060040160009054906101000a900460ff16610802576040517f08c379a00000000000000000000000000000000000000000000000000000000081526004016107f990611879565b60405180910390fd5b600160003373ffffffffffffffffffffffffffffffffffffffff1673ffffffffffffffffffffffffffffffffffffffff16815260200190815260200160002060020154905090565b600160003373ffffffffffffffffffffffffffffffffffffffff1673ffffffffffffffffffffffffffffffffffffffff16815260200190815260200160002060040160009054906101000a900460ff166108d9576040517f08c379a00000000000000000000000000000000000000000000000000000000081526004016108d090611879565b60405180910390fd5b6005816108e69190611a12565b600160003373ffffffffffffffffffffffffffffffffffffffff1673ffffffffffffffffffffffffffffffffffffffff16815260200190815260200160002060020154101561096a576040517f08c379a000000000000000000000000000000000000000000000000000000000815260040161096190611ab8565b60405180910390fd5b61097f60058261097a9190611a12565b61098b565b61098881610edc565b50565b600160003373ffffffffffffffffffffffffffffffffffffffff1673ffffffffffffffffffffffffffffffffffffffff16815260200190815260200160002060040160009054906101000a900460ff16610a1a576040517f08c379a0000000000000000000000000000000000000000000000000000000008152600401610a1190611879565b60405180910390fd5b80600160003373ffffffffffffffffffffffffffffffffffffffff1673ffffffffffffffffffffffffffffffffffffffff1681526020019081526020016000206002015411610a9e576040517f08c379a0000000000000000000000000000000000000000000000000000000008152600401610a9590611b24565b60405180910390fd5b80600160003373ffffffffffffffffffffffffffffffffffffffff1673ffffffffffffffffffffffffffffffffffffffff1681526020019081526020016000206002016000828254610af091906118c8565b9250508190555050565b600160003373ffffffffffffffffffffffffffffffffffffffff1673ffffffffffffffffffffffffffffffffffffffff16815260200190815260200160002060040160009054906101000a900460ff16610b89576040517f08c379a0000000000000000000000000000000000000000000000000000000008152600401610b8090611879565b60405180910390fd5b6000610b936102be565b905080600160003373ffffffffffffffffffffffffffffffffffffffff1673ffffffffffffffffffffffffffffffffffffffff168152602001908152602001600020600201541015610c1a576040517f08c379a0000000000000000000000000000000000000000000000000000000008152600401610c1190611b90565b60405180910390fd5b610c238161098b565b60008054906101000a900473ffffffffffffffffffffffffffffffffffffffff1673ffffffffffffffffffffffffffffffffffffffff1663dd226802336103e8603c8087610c719190611a12565b610c7b9190611a12565b610c859190611a12565b6103e842610c939190611a12565b610c9d919061195c565b6040518363ffffffff1660e01b8152600401610cba929190611bbf565b600060405180830381600087803b158015610cd457600080fd5b505af1158015610ce8573d6000803e3d6000fd5b5050505060018060003373ffffffffffffffffffffffffffffffffffffffff1673ffffffffffffffffffffffffffffffffffffffff1681526020019081526020016000206001016000828254610d3e919061195c565b925050819055505050565b60008060008054906101000a900473ffffffffffffffffffffffffffffffffffffffff1673ffffffffffffffffffffffffffffffffffffffff1663c9a6b175846040518263ffffffff1660e01b8152600401610da59190611be8565b602060405180830381865afa158015610dc2573d6000803e3d6000fd5b505050506040513d601f19601f82011682018060405250810190610de69190611c18565b905080915050919050565b600160003373ffffffffffffffffffffffffffffffffffffffff1673ffffffffffffffffffffffffffffffffffffffff16815260200190815260200160002060040160009054906101000a900460ff16610e80576040517f08c379a0000000000000000000000000000000000000000000000000000000008152600401610e7790611879565b60405180910390fd5b80600160003373ffffffffffffffffffffffffffffffffffffffff1673ffffffffffffffffffffffffffffffffffffffff1681526020019081526020016000206002016000828254610ed2919061195c565b9250508190555050565b600160003373ffffffffffffffffffffffffffffffffffffffff1673ffffffffffffffffffffffffffffffffffffffff16815260200190815260200160002060040160009054906101000a900460ff16610f6b576040517f08c379a0000000000000000000000000000000000000000000000000000000008152600401610f6290611879565b60405180910390fd5b80600160003373ffffffffffffffffffffffffffffffffffffffff1673ffffffffffffffffffffffffffffffffffffffff1681526020019081526020016000206003016000828254610fbd919061195c565b9250508190555050565b6000600160003373ffffffffffffffffffffffffffffffffffffffff1673ffffffffffffffffffffffffffffffffffffffff16815260200190815260200160002060040160009054906101000a900460ff16611058576040517f08c379a000000000000000000000000000000000000000000000000000000000815260040161104f90611879565b60405180910390fd5b600160003373ffffffffffffffffffffffffffffffffffffffff1673ffffffffffffffffffffffffffffffffffffffff16815260200190815260200160002060010154905090565b600160003373ffffffffffffffffffffffffffffffffffffffff1673ffffffffffffffffffffffffffffffffffffffff16815260200190815260200160002060040160009054906101000a900460ff1615611130576040517f08c379a000000000000000000000000000000000000000000000000000000000815260040161112790611c91565b60405180910390fd5b6040518060a0016040528083838080601f016020809104026020016040519081016040528093929190818152602001838380828437600081840152601f19601f82011690508083019250505050505050815260200160008152602001606481526020016002815260200160011515815250600160003373ffffffffffffffffffffffffffffffffffffffff1673ffffffffffffffffffffffffffffffffffffffff16815260200190815260200160002060008201518160000190805190602001906111fc9291906114c5565b5060208201518160010155604082015181600201556060820151816003015560808201518160040160006101000a81548160ff0219169083151502179055509050505050565b600160003373ffffffffffffffffffffffffffffffffffffffff1673ffffffffffffffffffffffffffffffffffffffff16815260200190815260200160002060040160009054906101000a900460ff166112d1576040517f08c379a00000000000000000000000000000000000000000000000000000000081526004016112c890611879565b60405180910390fd5b6000600160003373ffffffffffffffffffffffffffffffffffffffff1673ffffffffffffffffffffffffffffffffffffffff1681526020019081526020016000206003015411611356576040517f08c379a000000000000000000000000000000000000000000000000000000000815260040161134d90611ab8565b60405180910390fd5b60018060003373ffffffffffffffffffffffffffffffffffffffff1673ffffffffffffffffffffffffffffffffffffffff16815260200190815260200160002060030160008282546113a891906118c8565b9250508190555060008054906101000a900473ffffffffffffffffffffffffffffffffffffffff1673ffffffffffffffffffffffffffffffffffffffff16633951689433836040518363ffffffff1660e01b815260040161140a929190611bbf565b600060405180830381600087803b15801561142457600080fd5b505af1158015611438573d6000803e3d6000fd5b5050505050565b82805461144b906119e1565b90600052602060002090601f01602090048101928261146d57600085556114b4565b82601f1061148657803560ff19168380011785556114b4565b828001600101855582156114b4579182015b828111156114b3578235825591602001919060010190611498565b5b5090506114c1919061154b565b5090565b8280546114d1906119e1565b90600052602060002090601f0160209004810192826114f3576000855561153a565b82601f1061150c57805160ff191683800117855561153a565b8280016001018555821561153a579182015b8281111561153957825182559160200191906001019061151e565b5b509050611547919061154b565b5090565b5b8082111561156457600081600090555060010161154c565b5090565b6000819050919050565b61157b81611568565b82525050565b60006020820190506115966000830184611572565b92915050565b60008115159050919050565b6115b18161159c565b82525050565b60006020820190506115cc60008301846115a8565b92915050565b600081519050919050565b600082825260208201905092915050565b60005b8381101561160c5780820151818401526020810190506115f1565b8381111561161b576000848401525b50505050565b6000601f19601f8301169050919050565b600061163d826115d2565b61164781856115dd565b93506116578185602086016115ee565b61166081611621565b840191505092915050565b600060208201905081810360008301526116858184611632565b905092915050565b600080fd5b600080fd5b600080fd5b600080fd5b600080fd5b60008083601f8401126116bc576116bb611697565b5b8235905067ffffffffffffffff8111156116d9576116d861169c565b5b6020830191508360018202830111156116f5576116f46116a1565b5b9250929050565b600080602083850312156117135761171261168d565b5b600083013567ffffffffffffffff81111561173157611730611692565b5b61173d858286016116a6565b92509250509250929050565b61175281611568565b811461175d57600080fd5b50565b60008135905061176f81611749565b92915050565b60006020828403121561178b5761178a61168d565b5b600061179984828501611760565b91505092915050565b600073ffffffffffffffffffffffffffffffffffffffff82169050919050565b60006117cd826117a2565b9050919050565b6117dd816117c2565b81146117e857600080fd5b50565b6000813590506117fa816117d4565b92915050565b6000602082840312156118165761181561168d565b5b6000611824848285016117eb565b91505092915050565b7f70726f66696c65206e6f74206578697374210000000000000000000000000000600082015250565b60006118636012836115dd565b915061186e8261182d565b602082019050919050565b6000602082019050818103600083015261189281611856565b9050919050565b7f4e487b7100000000000000000000000000000000000000000000000000000000600052601160045260246000fd5b60006118d382611568565b91506118de83611568565b9250828210156118f1576118f0611899565b5b828203905092915050565b7f4e487b7100000000000000000000000000000000000000000000000000000000600052601260045260246000fd5b600061193682611568565b915061194183611568565b925082611951576119506118fc565b5b828204905092915050565b600061196782611568565b915061197283611568565b9250827fffffffffffffffffffffffffffffffffffffffffffffffffffffffffffffffff038211156119a7576119a6611899565b5b828201905092915050565b7f4e487b7100000000000000000000000000000000000000000000000000000000600052602260045260246000fd5b600060028204905060018216806119f957607f821691505b602082108103611a0c57611a0b6119b2565b5b50919050565b6000611a1d82611568565b9150611a2883611568565b9250817fffffffffffffffffffffffffffffffffffffffffffffffffffffffffffffffff0483118215151615611a6157611a60611899565b5b828202905092915050565b7f67616d65206974656d73206e6f7420656e6f7567682100000000000000000000600082015250565b6000611aa26016836115dd565b9150611aad82611a6c565b602082019050919050565b60006020820190508181036000830152611ad181611a95565b9050919050565b7f67616d6520706f696e7473206e6f7420656e6f75676821000000000000000000600082015250565b6000611b0e6017836115dd565b9150611b1982611ad8565b602082019050919050565b60006020820190508181036000830152611b3d81611b01565b9050919050565b7f596f7520646f6e2774206861766520656e6f75676820706f696e747321000000600082015250565b6000611b7a601d836115dd565b9150611b8582611b44565b602082019050919050565b60006020820190508181036000830152611ba981611b6d565b9050919050565b611bb9816117c2565b82525050565b6000604082019050611bd46000830185611bb0565b611be16020830184611572565b9392505050565b6000602082019050611bfd6000830184611bb0565b92915050565b600081519050611c1281611749565b92915050565b600060208284031215611c2e57611c2d61168d565b5b6000611c3c84828501611c03565b91505092915050565b7f70726f66696c6520616c72656164792065786973742100000000000000000000600082015250565b6000611c7b6016836115dd565b9150611c8682611c45565b602082019050919050565b60006020820190508181036000830152611caa81611c6e565b905091905056fea2646970667358221220b4be7cef03b6d493427e19b599d9053031f1084c5162007e8440c234afe2328564736f6c634300080e0033",
  "immutableReferences": {},
  "source": "// SPDX-License-Identifier: MIT\r\npragma solidity >=0.4.22 <0.9.0;\r\n// import \"../@truffle/Console.sol\";\r\n\r\nfunction toAsciiString(address x) pure returns (string memory) {\r\n    bytes memory s = new bytes(40);\r\n    for (uint i = 0; i < 20; i++) {\r\n        bytes1 b = bytes1(uint8(uint(uint160(x)) / (2**(8*(19 - i)))));\r\n        bytes1 hi = bytes1(uint8(b) / 16);\r\n        bytes1 lo = bytes1(uint8(b) - 16 * uint8(hi));\r\n        s[2*i] = char(hi);\r\n        s[2*i+1] = char(lo);            \r\n    }\r\n    return string(s);\r\n}\r\n\r\nfunction char(bytes1 b) pure returns (bytes1 c) {\r\n    if (uint8(b) < 10) return bytes1(uint8(b) + 0x30);\r\n    else return bytes1(uint8(b) + 0x57);\r\n}\r\n\r\n// interface //\r\ninterface GameSpirit {\r\n    function userMint(address _user, uint256 _timestamp) external;\r\n    function userFeed (address _user, uint _index) external;\r\n    function _test(address a) external view returns (uint256);\r\n}\r\n\r\ncontract GameProfile {\r\n    address GAME_SPIRIT_ADDRESS = 0x4b6853786e0bFcCdf12b7dA8d9112dBA81587C91;\r\n\r\n    struct profile {\r\n        string userName;\r\n        uint mintTimes;\r\n        uint gamePoints;\r\n        uint gameItems;\r\n        bool exists;\r\n    }\r\n\r\n    mapping(address => profile) _userProfile;\r\n\r\n    function setUpProfile (string calldata _name) public {\r\n        require (!_userProfile[msg.sender].exists, \"profile already exist!\");\r\n        _userProfile[msg.sender] = profile({userName:_name, mintTimes: 0, gamePoints:100, gameItems:2, exists:true});\r\n    }\r\n\r\n    // ---------------------------------------------------------------------------------------------\r\n\r\n    function readExist () public view returns (bool){\r\n        return _userProfile[msg.sender].exists;\r\n    }\r\n\r\n    function readName() public view returns (string memory) {\r\n        require (_userProfile[msg.sender].exists, \"profile not exist!\");\r\n        return _userProfile[msg.sender].userName;\r\n    }\r\n\r\n    function readTime() public view returns (uint) {\r\n        require (_userProfile[msg.sender].exists, \"profile not exist!\");\r\n        return _userProfile[msg.sender].mintTimes;\r\n    }\r\n    \r\n    function readPoint() public view returns (uint) {\r\n        require (_userProfile[msg.sender].exists, \"profile not exist!\");\r\n        return _userProfile[msg.sender].gamePoints;\r\n    }\r\n\r\n    function readItem() public view returns (uint) {\r\n        require (_userProfile[msg.sender].exists, \"profile not exist!\");\r\n        return _userProfile[msg.sender].gameItems;\r\n    }\r\n\r\n    function changeName(string calldata _name) public {\r\n        require (_userProfile[msg.sender].exists, \"profile not exist!\");\r\n        _userProfile[msg.sender].userName = _name;\r\n    }\r\n\r\n    // ---------------------------------------------------------------------------------------------\r\n\r\n    function addBeans(uint _point) public {\r\n        require (_userProfile[msg.sender].exists, \"profile not exist!\");\r\n        _userProfile[msg.sender].gamePoints += _point;\r\n    }\r\n    \r\n    function spendBeans(uint _point) public {\r\n        require (_userProfile[msg.sender].exists, \"profile not exist!\");\r\n        require((_userProfile[msg.sender].gamePoints>_point), \"game points not enough!\");\r\n        _userProfile[msg.sender].gamePoints -= _point;\r\n    }\r\n\r\n    function addItem(uint _item) public {\r\n        require (_userProfile[msg.sender].exists, \"profile not exist!\");\r\n        _userProfile[msg.sender].gameItems += _item;\r\n    }\r\n\r\n    // ---------------------------------------------------------------------------------------------\r\n\r\n    function determinMintFee() public view returns (uint) {\r\n        require (_userProfile[msg.sender].exists, \"profile not exist!\");\r\n        uint _times = _userProfile[msg.sender].mintTimes;\r\n        if (_times < 10) return 40;\r\n        else if (_times < 50) return 50;\r\n        else if (_times < 100) return 60;\r\n        else return (60 + (_times-100)/10);\r\n    }\r\n    \r\n    function feed(uint _index) public {\r\n        require (_userProfile[msg.sender].exists, \"profile not exist!\");\r\n        require((_userProfile[msg.sender].gameItems> 0), \"game items not enough!\");\r\n        // require ((GameSpirit(GAME_SPIRIT_ADDRESS)), \"A smart contract is not deployed yet!\");\r\n        _userProfile[msg.sender].gameItems -= 1;\r\n        (GameSpirit(GAME_SPIRIT_ADDRESS)).userFeed (msg.sender, _index); \r\n    }\r\n\r\n    // cheating!!!\r\n    function mint(uint _hours) public {\r\n        require (_userProfile[msg.sender].exists, \"profile not exist!\");\r\n        // require ((GameSpirit(GAME_SPIRIT_ADDRESS)), \"A smart contract is not deployed yet!\");\r\n        uint fee = determinMintFee();\r\n        require ((_userProfile[msg.sender].gamePoints >= fee), \"You don't have enough points!\");\r\n        spendBeans(fee);\r\n\r\n        (GameSpirit(GAME_SPIRIT_ADDRESS)).userMint (msg.sender, block.timestamp*1000 + _hours*60*60*1000);\r\n        _userProfile[msg.sender].mintTimes += 1;\r\n    }\r\n\r\n    function buyPoint(uint itemNumber) public {\r\n        require (_userProfile[msg.sender].exists, \"profile not exist!\");\r\n        require((_userProfile[msg.sender].gamePoints >= itemNumber*5), \"game items not enough!\");\r\n        spendBeans(itemNumber*5);\r\n        addItem(itemNumber);\r\n    }\r\n\r\n    function test(address a) public view returns (uint256){\r\n        // string memory res = \"[GP] Not called...\";\r\n        // res =  (GameSpirit(GAME_SPIRIT_ADDRESS))._test();\r\n        uint256 res =  (GameSpirit(GAME_SPIRIT_ADDRESS))._test(a);\r\n\r\n        return res;\r\n    }\r\n}\r\n",
  "sourcePath": "C:\\Users\\\\Desktop\\FTE_PJ\\dev\\MerryFairy\\truffle\\contracts\\GameProfile.sol",
  "compiler": {
    "name": "solc",
    "version": "0.8.14+commit.80d49f37.Emscripten.clang"
  },
  "schemaVersion": "3.4.11",
  "updatedAt": "2022-12-10T08:15:30.965Z",
  "networkType": "ethereum",
  "devdoc": {
    "kind": "dev",
    "methods": {},
    "version": 1
  },
  "userdoc": {
    "kind": "user",
    "methods": {},
    "version": 1
  }
}