{
  "contractName": "My721Collection",
  "abi": [
    {
      "inputs": [],
      "stateMutability": "nonpayable",
      "type": "constructor"
    },
    {
      "anonymous": false,
      "inputs": [
        {
          "indexed": true,
          "internalType": "address",
          "name": "owner",
          "type": "address"
        },
        {
          "indexed": true,
          "internalType": "address",
          "name": "approved",
          "type": "address"
        },
        {
          "indexed": true,
          "internalType": "uint256",
          "name": "tokenId",
          "type": "uint256"
        }
      ],
      "name": "Approval",
      "type": "event"
    },
    {
      "anonymous": false,
      "inputs": [
        {
          "indexed": true,
          "internalType": "address",
          "name": "owner",
          "type": "address"
        },
        {
          "indexed": true,
          "internalType": "address",
          "name": "operator",
          "type": "address"
        },
        {
          "indexed": false,
          "internalType": "bool",
          "name": "approved",
          "type": "bool"
        }
      ],
      "name": "ApprovalForAll",
      "type": "event"
    },
    {
      "anonymous": false,
      "inputs": [
        {
          "indexed": true,
          "internalType": "address",
          "name": "from",
          "type": "address"
        },
        {
          "indexed": true,
          "internalType": "address",
          "name": "to",
          "type": "address"
        },
        {
          "indexed": true,
          "internalType": "uint256",
          "name": "tokenId",
          "type": "uint256"
        }
      ],
      "name": "Transfer",
      "type": "event"
    },
    {
      "inputs": [
        {
          "internalType": "address",
          "name": "to",
          "type": "address"
        },
        {
          "internalType": "uint256",
          "name": "tokenId",
          "type": "uint256"
        }
      ],
      "name": "approve",
      "outputs": [],
      "stateMutability": "nonpayable",
      "type": "function"
    },
    {
      "inputs": [
        {
          "internalType": "address",
          "name": "owner",
          "type": "address"
        }
      ],
      "name": "balanceOf",
      "outputs": [
        {
          "internalType": "uint256",
          "name": "",
          "type": "uint256"
        }
      ],
      "stateMutability": "view",
      "type": "function"
    },
    {
      "inputs": [
        {
          "internalType": "uint256",
          "name": "tokenId",
          "type": "uint256"
        }
      ],
      "name": "getApproved",
      "outputs": [
        {
          "internalType": "address",
          "name": "",
          "type": "address"
        }
      ],
      "stateMutability": "view",
      "type": "function"
    },
    {
      "inputs": [
        {
          "internalType": "address",
          "name": "owner",
          "type": "address"
        },
        {
          "internalType": "address",
          "name": "operator",
          "type": "address"
        }
      ],
      "name": "isApprovedForAll",
      "outputs": [
        {
          "internalType": "bool",
          "name": "",
          "type": "bool"
        }
      ],
      "stateMutability": "view",
      "type": "function"
    },
    {
      "inputs": [],
      "name": "name",
      "outputs": [
        {
          "internalType": "string",
          "name": "",
          "type": "string"
        }
      ],
      "stateMutability": "view",
      "type": "function"
    },
    {
      "inputs": [
        {
          "internalType": "uint256",
          "name": "tokenId",
          "type": "uint256"
        }
      ],
      "name": "ownerOf",
      "outputs": [
        {
          "internalType": "address",
          "name": "",
          "type": "address"
        }
      ],
      "stateMutability": "view",
      "type": "function"
    },
    {
      "inputs": [
        {
          "internalType": "address",
          "name": "from",
          "type": "address"
        },
        {
          "internalType": "address",
          "name": "to",
          "type": "address"
        },
        {
          "internalType": "uint256",
          "name": "tokenId",
          "type": "uint256"
        }
      ],
      "name": "safeTransferFrom",
      "outputs": [],
      "stateMutability": "nonpayable",
      "type": "function"
    },
    {
      "inputs": [
        {
          "internalType": "address",
          "name": "from",
          "type": "address"
        },
        {
          "internalType": "address",
          "name": "to",
          "type": "address"
        },
        {
          "internalType": "uint256",
          "name": "tokenId",
          "type": "uint256"
        },
        {
          "internalType": "bytes",
          "name": "data",
          "type": "bytes"
        }
      ],
      "name": "safeTransferFrom",
      "outputs": [],
      "stateMutability": "nonpayable",
      "type": "function"
    },
    {
      "inputs": [
        {
          "internalType": "address",
          "name": "operator",
          "type": "address"
        },
        {
          "internalType": "bool",
          "name": "approved",
          "type": "bool"
        }
      ],
      "name": "setApprovalForAll",
      "outputs": [],
      "stateMutability": "nonpayable",
      "type": "function"
    },
    {
      "inputs": [
        {
          "internalType": "bytes4",
          "name": "interfaceId",
          "type": "bytes4"
        }
      ],
      "name": "supportsInterface",
      "outputs": [
        {
          "internalType": "bool",
          "name": "",
          "type": "bool"
        }
      ],
      "stateMutability": "view",
      "type": "function"
    },
    {
      "inputs": [],
      "name": "symbol",
      "outputs": [
        {
          "internalType": "string",
          "name": "",
          "type": "string"
        }
      ],
      "stateMutability": "view",
      "type": "function"
    },
    {
      "inputs": [],
      "name": "tokenCounter",
      "outputs": [
        {
          "internalType": "uint256",
          "name": "",
          "type": "uint256"
        }
      ],
      "stateMutability": "view",
      "type": "function"
    },
    {
      "inputs": [
        {
          "internalType": "uint256",
          "name": "tokenId",
          "type": "uint256"
        }
      ],
      "name": "tokenURI",
      "outputs": [
        {
          "internalType": "string",
          "name": "",
          "type": "string"
        }
      ],
      "stateMutability": "view",
      "type": "function"
    },
    {
      "inputs": [
        {
          "internalType": "address",
          "name": "from",
          "type": "address"
        },
        {
          "internalType": "address",
          "name": "to",
          "type": "address"
        },
        {
          "internalType": "uint256",
          "name": "tokenId",
          "type": "uint256"
        }
      ],
      "name": "transferFrom",
      "outputs": [],
      "stateMutability": "nonpayable",
      "type": "function"
    },
    {
      "inputs": [
        {
          "internalType": "string",
          "name": "tokenURI",
          "type": "string"
        }
      ],
      "name": "createCollectible",
      "outputs": [
        {
          "internalType": "uint256",
          "name": "",
          "type": "uint256"
        }
      ],
      "stateMutability": "nonpayable",
      "type": "function"
    }
  ],
  "bytecode": "0x60806040523480156200001157600080fd5b506040518060400160405280600f81526020017f434f4c4c454354494f4e5f4e414d4500000000000000000000000000000000008152506040518060400160405280601181526020017f434f4c4c454354494f4e5f5449434b4552000000000000000000000000000000815250816000908051906020019062000096929190620000c0565b508060019080519060200190620000af929190620000c0565b5050506000600781905550620001d4565b828054620000ce906200019f565b90600052602060002090601f016020900481019282620000f257600085556200013e565b82601f106200010d57805160ff19168380011785556200013e565b828001600101855582156200013e579182015b828111156200013d57825182559160200191906001019062000120565b5b5090506200014d919062000151565b5090565b5b808211156200016c57600081600090555060010162000152565b5090565b7f4e487b7100000000000000000000000000000000000000000000000000000000600052602260045260246000fd5b60006002820490506001821680620001b857607f821691505b602082108103620001ce57620001cd62000170565b5b50919050565b612ac980620001e46000396000f3fe608060405234801561001057600080fd5b50600436106100f55760003560e01c80636352211e11610097578063b88d4fde11610066578063b88d4fde14610296578063c87b56dd146102b2578063d082e381146102e2578063e985e9c514610300576100f5565b80636352211e146101fc57806370a082311461022c57806395d89b411461025c578063a22cb4651461027a576100f5565b8063095ea7b3116100d3578063095ea7b31461017857806323b872dd1461019457806331f1f3c3146101b057806342842e0e146101e0576100f5565b806301ffc9a7146100fa57806306fdde031461012a578063081812fc14610148575b600080fd5b610114600480360381019061010f9190611b87565b610330565b6040516101219190611bcf565b60405180910390f35b610132610412565b60405161013f9190611c83565b60405180910390f35b610162600480360381019061015d9190611cdb565b6104a4565b60405161016f9190611d49565b60405180910390f35b610192600480360381019061018d9190611d90565b6104ea565b005b6101ae60048036038101906101a99190611dd0565b610601565b005b6101ca60048036038101906101c59190611f58565b610661565b6040516101d79190611fb0565b60405180910390f35b6101fa60048036038101906101f59190611dd0565b61069b565b005b61021660048036038101906102119190611cdb565b6106bb565b6040516102239190611d49565b60405180910390f35b61024660048036038101906102419190611fcb565b610741565b6040516102539190611fb0565b60405180910390f35b6102646107f8565b6040516102719190611c83565b60405180910390f35b610294600480360381019061028f9190612024565b61088a565b005b6102b060048036038101906102ab9190612105565b6108a0565b005b6102cc60048036038101906102c79190611cdb565b610902565b6040516102d99190611c83565b60405180910390f35b6102ea610a14565b6040516102f79190611fb0565b60405180910390f35b61031a60048036038101906103159190612188565b610a1a565b6040516103279190611bcf565b60405180910390f35b60007f80ac58cd000000000000000000000000000000000000000000000000000000007bffffffffffffffffffffffffffffffffffffffffffffffffffffffff1916827bffffffffffffffffffffffffffffffffffffffffffffffffffffffff191614806103fb57507f5b5e139f000000000000000000000000000000000000000000000000000000007bffffffffffffffffffffffffffffffffffffffffffffffffffffffff1916827bffffffffffffffffffffffffffffffffffffffffffffffffffffffff1916145b8061040b575061040a82610aae565b5b9050919050565b606060008054610421906121f7565b80601f016020809104026020016040519081016040528092919081815260200182805461044d906121f7565b801561049a5780601f1061046f5761010080835404028352916020019161049a565b820191906000526020600020905b81548152906001019060200180831161047d57829003601f168201915b5050505050905090565b60006104af82610b18565b6004600083815260200190815260200160002060009054906101000a900473ffffffffffffffffffffffffffffffffffffffff169050919050565b60006104f5826106bb565b90508073ffffffffffffffffffffffffffffffffffffffff168373ffffffffffffffffffffffffffffffffffffffff1603610565576040517f08c379a000000000000000000000000000000000000000000000000000000000815260040161055c9061229a565b60405180910390fd5b8073ffffffffffffffffffffffffffffffffffffffff16610584610b63565b73ffffffffffffffffffffffffffffffffffffffff1614806105b357506105b2816105ad610b63565b610a1a565b5b6105f2576040517f08c379a00000000000000000000000000000000000000000000000000000000081526004016105e99061232c565b60405180910390fd5b6105fc8383610b6b565b505050565b61061261060c610b63565b82610c24565b610651576040517f08c379a0000000000000000000000000000000000000000000000000000000008152600401610648906123be565b60405180910390fd5b61065c838383610cb9565b505050565b60008060075490506106733382610fb2565b61067d8184610fd0565b600160075461068c919061240d565b60078190555080915050919050565b6106b6838383604051806020016040528060008152506108a0565b505050565b6000806106c783611044565b9050600073ffffffffffffffffffffffffffffffffffffffff168173ffffffffffffffffffffffffffffffffffffffff1603610738576040517f08c379a000000000000000000000000000000000000000000000000000000000815260040161072f906124af565b60405180910390fd5b80915050919050565b60008073ffffffffffffffffffffffffffffffffffffffff168273ffffffffffffffffffffffffffffffffffffffff16036107b1576040517f08c379a00000000000000000000000000000000000000000000000000000000081526004016107a890612541565b60405180910390fd5b600360008373ffffffffffffffffffffffffffffffffffffffff1673ffffffffffffffffffffffffffffffffffffffff168152602001908152602001600020549050919050565b606060018054610807906121f7565b80601f0160208091040260200160405190810160405280929190818152602001828054610833906121f7565b80156108805780601f1061085557610100808354040283529160200191610880565b820191906000526020600020905b81548152906001019060200180831161086357829003601f168201915b5050505050905090565b61089c610895610b63565b8383611081565b5050565b6108b16108ab610b63565b83610c24565b6108f0576040517f08c379a00000000000000000000000000000000000000000000000000000000081526004016108e7906123be565b60405180910390fd5b6108fc848484846111ed565b50505050565b606061090d82610b18565b600060066000848152602001908152602001600020805461092d906121f7565b80601f0160208091040260200160405190810160405280929190818152602001828054610959906121f7565b80156109a65780601f1061097b576101008083540402835291602001916109a6565b820191906000526020600020905b81548152906001019060200180831161098957829003601f168201915b5050505050905060006109b7611249565b905060008151036109cc578192505050610a0f565b600082511115610a015780826040516020016109e992919061259d565b60405160208183030381529060405292505050610a0f565b610a0a84611260565b925050505b919050565b60075481565b6000600560008473ffffffffffffffffffffffffffffffffffffffff1673ffffffffffffffffffffffffffffffffffffffff16815260200190815260200160002060008373ffffffffffffffffffffffffffffffffffffffff1673ffffffffffffffffffffffffffffffffffffffff16815260200190815260200160002060009054906101000a900460ff16905092915050565b60007f01ffc9a7000000000000000000000000000000000000000000000000000000007bffffffffffffffffffffffffffffffffffffffffffffffffffffffff1916827bffffffffffffffffffffffffffffffffffffffffffffffffffffffff1916149050919050565b610b21816112c8565b610b60576040517f08c379a0000000000000000000000000000000000000000000000000000000008152600401610b57906124af565b60405180910390fd5b50565b600033905090565b816004600083815260200190815260200160002060006101000a81548173ffffffffffffffffffffffffffffffffffffffff021916908373ffffffffffffffffffffffffffffffffffffffff160217905550808273ffffffffffffffffffffffffffffffffffffffff16610bde836106bb565b73ffffffffffffffffffffffffffffffffffffffff167f8c5be1e5ebec7d5bd14f71427d1e84f3dd0314c0f7b2291e5b200ac8c7c3b92560405160405180910390a45050565b600080610c30836106bb565b90508073ffffffffffffffffffffffffffffffffffffffff168473ffffffffffffffffffffffffffffffffffffffff161480610c725750610c718185610a1a565b5b80610cb057508373ffffffffffffffffffffffffffffffffffffffff16610c98846104a4565b73ffffffffffffffffffffffffffffffffffffffff16145b91505092915050565b8273ffffffffffffffffffffffffffffffffffffffff16610cd9826106bb565b73ffffffffffffffffffffffffffffffffffffffff1614610d2f576040517f08c379a0000000000000000000000000000000000000000000000000000000008152600401610d2690612633565b60405180910390fd5b600073ffffffffffffffffffffffffffffffffffffffff168273ffffffffffffffffffffffffffffffffffffffff1603610d9e576040517f08c379a0000000000000000000000000000000000000000000000000000000008152600401610d95906126c5565b60405180910390fd5b610dab8383836001611309565b8273ffffffffffffffffffffffffffffffffffffffff16610dcb826106bb565b73ffffffffffffffffffffffffffffffffffffffff1614610e21576040517f08c379a0000000000000000000000000000000000000000000000000000000008152600401610e1890612633565b60405180910390fd5b6004600082815260200190815260200160002060006101000a81549073ffffffffffffffffffffffffffffffffffffffff02191690556001600360008573ffffffffffffffffffffffffffffffffffffffff1673ffffffffffffffffffffffffffffffffffffffff168152602001908152602001600020600082825403925050819055506001600360008473ffffffffffffffffffffffffffffffffffffffff1673ffffffffffffffffffffffffffffffffffffffff16815260200190815260200160002060008282540192505081905550816002600083815260200190815260200160002060006101000a81548173ffffffffffffffffffffffffffffffffffffffff021916908373ffffffffffffffffffffffffffffffffffffffff160217905550808273ffffffffffffffffffffffffffffffffffffffff168473ffffffffffffffffffffffffffffffffffffffff167fddf252ad1be2c89b69c2b068fc378daa952ba7f163c4a11628f55a4df523b3ef60405160405180910390a4610fad838383600161142f565b505050565b610fcc828260405180602001604052806000815250611435565b5050565b610fd9826112c8565b611018576040517f08c379a000000000000000000000000000000000000000000000000000000000815260040161100f90612757565b60405180910390fd5b8060066000848152602001908152602001600020908051906020019061103f929190611a78565b505050565b60006002600083815260200190815260200160002060009054906101000a900473ffffffffffffffffffffffffffffffffffffffff169050919050565b8173ffffffffffffffffffffffffffffffffffffffff168373ffffffffffffffffffffffffffffffffffffffff16036110ef576040517f08c379a00000000000000000000000000000000000000000000000000000000081526004016110e6906127c3565b60405180910390fd5b80600560008573ffffffffffffffffffffffffffffffffffffffff1673ffffffffffffffffffffffffffffffffffffffff16815260200190815260200160002060008473ffffffffffffffffffffffffffffffffffffffff1673ffffffffffffffffffffffffffffffffffffffff16815260200190815260200160002060006101000a81548160ff0219169083151502179055508173ffffffffffffffffffffffffffffffffffffffff168373ffffffffffffffffffffffffffffffffffffffff167f17307eab39ab6107e8899845ad3d59bd9653f200f220920489ca2b5937696c31836040516111e09190611bcf565b60405180910390a3505050565b6111f8848484610cb9565b61120484848484611490565b611243576040517f08c379a000000000000000000000000000000000000000000000000000000000815260040161123a90612855565b60405180910390fd5b50505050565b606060405180602001604052806000815250905090565b606061126b82610b18565b6000611275611249565b9050600081511161129557604051806020016040528060008152506112c0565b8061129f84611617565b6040516020016112b092919061259d565b6040516020818303038152906040525b915050919050565b60008073ffffffffffffffffffffffffffffffffffffffff166112ea83611044565b73ffffffffffffffffffffffffffffffffffffffff1614159050919050565b600181111561142957600073ffffffffffffffffffffffffffffffffffffffff168473ffffffffffffffffffffffffffffffffffffffff161461139d5780600360008673ffffffffffffffffffffffffffffffffffffffff1673ffffffffffffffffffffffffffffffffffffffff16815260200190815260200160002060008282546113959190612875565b925050819055505b600073ffffffffffffffffffffffffffffffffffffffff168373ffffffffffffffffffffffffffffffffffffffff16146114285780600360008573ffffffffffffffffffffffffffffffffffffffff1673ffffffffffffffffffffffffffffffffffffffff1681526020019081526020016000206000828254611420919061240d565b925050819055505b5b50505050565b50505050565b61143f83836116e5565b61144c6000848484611490565b61148b576040517f08c379a000000000000000000000000000000000000000000000000000000000815260040161148290612855565b60405180910390fd5b505050565b60006114b18473ffffffffffffffffffffffffffffffffffffffff16611902565b1561160a578373ffffffffffffffffffffffffffffffffffffffff1663150b7a026114da610b63565b8786866040518563ffffffff1660e01b81526004016114fc94939291906128fe565b6020604051808303816000875af192505050801561153857506040513d601f19601f82011682018060405250810190611535919061295f565b60015b6115ba573d8060008114611568576040519150601f19603f3d011682016040523d82523d6000602084013e61156d565b606091505b5060008151036115b2576040517f08c379a00000000000000000000000000000000000000000000000000000000081526004016115a990612855565b60405180910390fd5b805181602001fd5b63150b7a0260e01b7bffffffffffffffffffffffffffffffffffffffffffffffffffffffff1916817bffffffffffffffffffffffffffffffffffffffffffffffffffffffff19161491505061160f565b600190505b949350505050565b60606000600161162684611925565b01905060008167ffffffffffffffff81111561164557611644611e2d565b5b6040519080825280601f01601f1916602001820160405280156116775781602001600182028036833780820191505090505b509050600082602001820190505b6001156116da578080600190039150507f3031323334353637383961626364656600000000000000000000000000000000600a86061a8153600a85816116ce576116cd61298c565b5b04945060008503611685575b819350505050919050565b600073ffffffffffffffffffffffffffffffffffffffff168273ffffffffffffffffffffffffffffffffffffffff1603611754576040517f08c379a000000000000000000000000000000000000000000000000000000000815260040161174b90612a07565b60405180910390fd5b61175d816112c8565b1561179d576040517f08c379a000000000000000000000000000000000000000000000000000000000815260040161179490612a73565b60405180910390fd5b6117ab600083836001611309565b6117b4816112c8565b156117f4576040517f08c379a00000000000000000000000000000000000000000000000000000000081526004016117eb90612a73565b60405180910390fd5b6001600360008473ffffffffffffffffffffffffffffffffffffffff1673ffffffffffffffffffffffffffffffffffffffff16815260200190815260200160002060008282540192505081905550816002600083815260200190815260200160002060006101000a81548173ffffffffffffffffffffffffffffffffffffffff021916908373ffffffffffffffffffffffffffffffffffffffff160217905550808273ffffffffffffffffffffffffffffffffffffffff16600073ffffffffffffffffffffffffffffffffffffffff167fddf252ad1be2c89b69c2b068fc378daa952ba7f163c4a11628f55a4df523b3ef60405160405180910390a46118fe60008383600161142f565b5050565b6000808273ffffffffffffffffffffffffffffffffffffffff163b119050919050565b600080600090507a184f03e93ff9f4daa797ed6e38ed64bf6a1f0100000000000000008310611983577a184f03e93ff9f4daa797ed6e38ed64bf6a1f01000000000000000083816119795761197861298c565b5b0492506040810190505b6d04ee2d6d415b85acef810000000083106119c0576d04ee2d6d415b85acef810000000083816119b6576119b561298c565b5b0492506020810190505b662386f26fc1000083106119ef57662386f26fc1000083816119e5576119e461298c565b5b0492506010810190505b6305f5e1008310611a18576305f5e1008381611a0e57611a0d61298c565b5b0492506008810190505b6127108310611a3d576127108381611a3357611a3261298c565b5b0492506004810190505b60648310611a605760648381611a5657611a5561298c565b5b0492506002810190505b600a8310611a6f576001810190505b80915050919050565b828054611a84906121f7565b90600052602060002090601f016020900481019282611aa65760008555611aed565b82601f10611abf57805160ff1916838001178555611aed565b82800160010185558215611aed579182015b82811115611aec578251825591602001919060010190611ad1565b5b509050611afa9190611afe565b5090565b5b80821115611b17576000816000905550600101611aff565b5090565b6000604051905090565b600080fd5b600080fd5b60007fffffffff0000000000000000000000000000000000000000000000000000000082169050919050565b611b6481611b2f565b8114611b6f57600080fd5b50565b600081359050611b8181611b5b565b92915050565b600060208284031215611b9d57611b9c611b25565b5b6000611bab84828501611b72565b91505092915050565b60008115159050919050565b611bc981611bb4565b82525050565b6000602082019050611be46000830184611bc0565b92915050565b600081519050919050565b600082825260208201905092915050565b60005b83811015611c24578082015181840152602081019050611c09565b83811115611c33576000848401525b50505050565b6000601f19601f8301169050919050565b6000611c5582611bea565b611c5f8185611bf5565b9350611c6f818560208601611c06565b611c7881611c39565b840191505092915050565b60006020820190508181036000830152611c9d8184611c4a565b905092915050565b6000819050919050565b611cb881611ca5565b8114611cc357600080fd5b50565b600081359050611cd581611caf565b92915050565b600060208284031215611cf157611cf0611b25565b5b6000611cff84828501611cc6565b91505092915050565b600073ffffffffffffffffffffffffffffffffffffffff82169050919050565b6000611d3382611d08565b9050919050565b611d4381611d28565b82525050565b6000602082019050611d5e6000830184611d3a565b92915050565b611d6d81611d28565b8114611d7857600080fd5b50565b600081359050611d8a81611d64565b92915050565b60008060408385031215611da757611da6611b25565b5b6000611db585828601611d7b565b9250506020611dc685828601611cc6565b9150509250929050565b600080600060608486031215611de957611de8611b25565b5b6000611df786828701611d7b565b9350506020611e0886828701611d7b565b9250506040611e1986828701611cc6565b9150509250925092565b600080fd5b600080fd5b7f4e487b7100000000000000000000000000000000000000000000000000000000600052604160045260246000fd5b611e6582611c39565b810181811067ffffffffffffffff82111715611e8457611e83611e2d565b5b80604052505050565b6000611e97611b1b565b9050611ea38282611e5c565b919050565b600067ffffffffffffffff821115611ec357611ec2611e2d565b5b611ecc82611c39565b9050602081019050919050565b82818337600083830152505050565b6000611efb611ef684611ea8565b611e8d565b905082815260208101848484011115611f1757611f16611e28565b5b611f22848285611ed9565b509392505050565b600082601f830112611f3f57611f3e611e23565b5b8135611f4f848260208601611ee8565b91505092915050565b600060208284031215611f6e57611f6d611b25565b5b600082013567ffffffffffffffff811115611f8c57611f8b611b2a565b5b611f9884828501611f2a565b91505092915050565b611faa81611ca5565b82525050565b6000602082019050611fc56000830184611fa1565b92915050565b600060208284031215611fe157611fe0611b25565b5b6000611fef84828501611d7b565b91505092915050565b61200181611bb4565b811461200c57600080fd5b50565b60008135905061201e81611ff8565b92915050565b6000806040838503121561203b5761203a611b25565b5b600061204985828601611d7b565b925050602061205a8582860161200f565b9150509250929050565b600067ffffffffffffffff82111561207f5761207e611e2d565b5b61208882611c39565b9050602081019050919050565b60006120a86120a384612064565b611e8d565b9050828152602081018484840111156120c4576120c3611e28565b5b6120cf848285611ed9565b509392505050565b600082601f8301126120ec576120eb611e23565b5b81356120fc848260208601612095565b91505092915050565b6000806000806080858703121561211f5761211e611b25565b5b600061212d87828801611d7b565b945050602061213e87828801611d7b565b935050604061214f87828801611cc6565b925050606085013567ffffffffffffffff8111156121705761216f611b2a565b5b61217c878288016120d7565b91505092959194509250565b6000806040838503121561219f5761219e611b25565b5b60006121ad85828601611d7b565b92505060206121be85828601611d7b565b9150509250929050565b7f4e487b7100000000000000000000000000000000000000000000000000000000600052602260045260246000fd5b6000600282049050600182168061220f57607f821691505b602082108103612222576122216121c8565b5b50919050565b7f4552433732313a20617070726f76616c20746f2063757272656e74206f776e6560008201527f7200000000000000000000000000000000000000000000000000000000000000602082015250565b6000612284602183611bf5565b915061228f82612228565b604082019050919050565b600060208201905081810360008301526122b381612277565b9050919050565b7f4552433732313a20617070726f76652063616c6c6572206973206e6f7420746f60008201527f6b656e206f776e6572206f7220617070726f76656420666f7220616c6c000000602082015250565b6000612316603d83611bf5565b9150612321826122ba565b604082019050919050565b6000602082019050818103600083015261234581612309565b9050919050565b7f4552433732313a2063616c6c6572206973206e6f7420746f6b656e206f776e6560008201527f72206f7220617070726f76656400000000000000000000000000000000000000602082015250565b60006123a8602d83611bf5565b91506123b38261234c565b604082019050919050565b600060208201905081810360008301526123d78161239b565b9050919050565b7f4e487b7100000000000000000000000000000000000000000000000000000000600052601160045260246000fd5b600061241882611ca5565b915061242383611ca5565b9250827fffffffffffffffffffffffffffffffffffffffffffffffffffffffffffffffff03821115612458576124576123de565b5b828201905092915050565b7f4552433732313a20696e76616c696420746f6b656e2049440000000000000000600082015250565b6000612499601883611bf5565b91506124a482612463565b602082019050919050565b600060208201905081810360008301526124c88161248c565b9050919050565b7f4552433732313a2061646472657373207a65726f206973206e6f74206120766160008201527f6c6964206f776e65720000000000000000000000000000000000000000000000602082015250565b600061252b602983611bf5565b9150612536826124cf565b604082019050919050565b6000602082019050818103600083015261255a8161251e565b9050919050565b600081905092915050565b600061257782611bea565b6125818185612561565b9350612591818560208601611c06565b80840191505092915050565b60006125a9828561256c565b91506125b5828461256c565b91508190509392505050565b7f4552433732313a207472616e736665722066726f6d20696e636f72726563742060008201527f6f776e6572000000000000000000000000000000000000000000000000000000602082015250565b600061261d602583611bf5565b9150612628826125c1565b604082019050919050565b6000602082019050818103600083015261264c81612610565b9050919050565b7f4552433732313a207472616e7366657220746f20746865207a65726f2061646460008201527f7265737300000000000000000000000000000000000000000000000000000000602082015250565b60006126af602483611bf5565b91506126ba82612653565b604082019050919050565b600060208201905081810360008301526126de816126a2565b9050919050565b7f45524337323155524953746f726167653a2055524920736574206f66206e6f6e60008201527f6578697374656e7420746f6b656e000000000000000000000000000000000000602082015250565b6000612741602e83611bf5565b915061274c826126e5565b604082019050919050565b6000602082019050818103600083015261277081612734565b9050919050565b7f4552433732313a20617070726f766520746f2063616c6c657200000000000000600082015250565b60006127ad601983611bf5565b91506127b882612777565b602082019050919050565b600060208201905081810360008301526127dc816127a0565b9050919050565b7f4552433732313a207472616e7366657220746f206e6f6e20455243373231526560008201527f63656976657220696d706c656d656e7465720000000000000000000000000000602082015250565b600061283f603283611bf5565b915061284a826127e3565b604082019050919050565b6000602082019050818103600083015261286e81612832565b9050919050565b600061288082611ca5565b915061288b83611ca5565b92508282101561289e5761289d6123de565b5b828203905092915050565b600081519050919050565b600082825260208201905092915050565b60006128d0826128a9565b6128da81856128b4565b93506128ea818560208601611c06565b6128f381611c39565b840191505092915050565b60006080820190506129136000830187611d3a565b6129206020830186611d3a565b61292d6040830185611fa1565b818103606083015261293f81846128c5565b905095945050505050565b60008151905061295981611b5b565b92915050565b60006020828403121561297557612974611b25565b5b60006129838482850161294a565b91505092915050565b7f4e487b7100000000000000000000000000000000000000000000000000000000600052601260045260246000fd5b7f4552433732313a206d696e7420746f20746865207a65726f2061646472657373600082015250565b60006129f1602083611bf5565b91506129fc826129bb565b602082019050919050565b60006020820190508181036000830152612a20816129e4565b9050919050565b7f4552433732313a20746f6b656e20616c7265616479206d696e74656400000000600082015250565b6000612a5d601c83611bf5565b9150612a6882612a27565b602082019050919050565b60006020820190508181036000830152612a8c81612a50565b905091905056fea26469706673582212209a6fc05d8afcb5a2e9e2969c1bc87a7c35364998c7bbb22f78c7ff401f109d2664736f6c634300080e0033",
  "immutableReferences": {},
  "source": "// SPDX-License-Identifier: MIT\r\npragma solidity >=0.4.22 <0.9.0;\r\n\r\nimport \"@openzeppelin/contracts/token/ERC721/extensions/ERC721URIStorage.sol\";\r\n\r\ncontract My721Collection is ERC721URIStorage {\r\n    uint256 public tokenCounter;\r\n    constructor () public ERC721 (\"COLLECTION_NAME\", \"COLLECTION_TICKER\"){\r\n        tokenCounter = 0;\r\n    }\r\n\r\n    function createCollectible(string memory tokenURI) public returns (uint256) {\r\n        uint256 newItemId = tokenCounter;\r\n        _safeMint(msg.sender, newItemId);\r\n        _setTokenURI(newItemId, tokenURI);\r\n        tokenCounter = tokenCounter + 1;\r\n        return newItemId;\r\n    }\r\n\r\n}\r\n\r\n",
  "sourcePath": "C:\\Users\\\\Desktop\\FTE_PJ\\dev\\MerryFairy\\truffle\\contracts\\My721Collection.sol",
  "compiler": {
    "name": "solc",
    "version": "0.8.14+commit.80d49f37.Emscripten.clang"
  },
  "schemaVersion": "3.4.11",
  "updatedAt": "2022-12-10T08:15:28.648Z",
  "devdoc": {
    "kind": "dev",
    "methods": {
      "approve(address,uint256)": {
        "details": "See {IERC721-approve}."
      },
      "balanceOf(address)": {
        "details": "See {IERC721-balanceOf}."
      },
      "getApproved(uint256)": {
        "details": "See {IERC721-getApproved}."
      },
      "isApprovedForAll(address,address)": {
        "details": "See {IERC721-isApprovedForAll}."
      },
      "name()": {
        "details": "See {IERC721Metadata-name}."
      },
      "ownerOf(uint256)": {
        "details": "See {IERC721-ownerOf}."
      },
      "safeTransferFrom(address,address,uint256)": {
        "details": "See {IERC721-safeTransferFrom}."
      },
      "safeTransferFrom(address,address,uint256,bytes)": {
        "details": "See {IERC721-safeTransferFrom}."
      },
      "setApprovalForAll(address,bool)": {
        "details": "See {IERC721-setApprovalForAll}."
      },
      "supportsInterface(bytes4)": {
        "details": "See {IERC165-supportsInterface}."
      },
      "symbol()": {
        "details": "See {IERC721Metadata-symbol}."
      },
      "tokenURI(uint256)": {
        "details": "See {IERC721Metadata-tokenURI}."
      },
      "transferFrom(address,address,uint256)": {
        "details": "See {IERC721-transferFrom}."
      }
    },
    "version": 1
  },
  "userdoc": {
    "kind": "user",
    "methods": {},
    "version": 1
  }
}