{
  "contractName": "SimpleStorage",
  "abi": [
    {
      "inputs": [],
      "name": "read",
      "outputs": [
        {
          "internalType": "uint256",
          "name": "",
          "type": "uint256"
        }
      ],
      "stateMutability": "view",
      "type": "function"
    },
    {
      "inputs": [
        {
          "internalType": "uint256",
          "name": "newValue",
          "type": "uint256"
        }
      ],
      "name": "write",
      "outputs": [],
      "stateMutability": "nonpayable",
      "type": "function"
    },
    {
      "inputs": [],
      "name": "test",
      "outputs": [
        {
          "internalType": "uint256",
          "name": "",
          "type": "uint256"
        }
      ],
      "stateMutability": "view",
      "type": "function"
    }
  ],
  "bytecode": "0x608060405234801561001057600080fd5b50610181806100206000396000f3fe608060405234801561001057600080fd5b50600436106100415760003560e01c80632f048afa1461004657806357de26a414610062578063f8a8fd6d14610080575b600080fd5b610060600480360381019061005b91906100f4565b61009e565b005b61006a6100a8565b6040516100779190610130565b60405180910390f35b6100886100b1565b6040516100959190610130565b60405180910390f35b8060008190555050565b60008054905090565b600042905090565b600080fd5b6000819050919050565b6100d1816100be565b81146100dc57600080fd5b50565b6000813590506100ee816100c8565b92915050565b60006020828403121561010a576101096100b9565b5b6000610118848285016100df565b91505092915050565b61012a816100be565b82525050565b60006020820190506101456000830184610121565b9291505056fea2646970667358221220625402c1079d85c020a8c9add21f9a8c96c514ee9c21a2beb576c037537139ea64736f6c634300080e0033",
  "immutableReferences": {},
  "source": "// SPDX-License-Identifier: MIT\npragma solidity >=0.4.22 <0.9.0;\n\ncontract SimpleStorage {\n  uint256 value;\n\n  function read() public view returns (uint256) {\n    return value;\n  }\n\n  function write(uint256 newValue) public {\n    value = newValue;\n  }\n\n  function test() public view returns (uint256){\n    return block.timestamp;\n  }\n}\n",
  "sourcePath": "C:\\Users\\淮琛\\Desktop\\FTE_PJ\\dev\\MerryFairy\\truffle\\contracts\\SimpleStorage.sol",
  "compiler": {
    "name": "solc",
    "version": "0.8.14+commit.80d49f37.Emscripten.clang"
  },
  "schemaVersion": "3.4.11",
  "updatedAt": "2022-12-10T08:15:28.654Z",
  "devdoc": {
    "kind": "dev",
    "methods": {},
    "version": 1
  },
  "userdoc": {
    "kind": "user",
    "methods": {},
    "version": 1
  }
}